{
  "contractName": "Evidences",
  "abi": [
    {
      "constant": true,
      "inputs": [],
      "name": "ecount",
      "outputs": [
        {
          "name": "",
          "type": "uint256"
        }
      ],
      "payable": false,
      "stateMutability": "view",
      "type": "function",
      "signature": "0x3fc2cf73"
    },
    {
      "constant": true,
      "inputs": [
        {
          "name": "",
          "type": "uint256"
        }
      ],
      "name": "evidarray",
      "outputs": [
        {
          "name": "caseno",
          "type": "uint256"
        },
        {
          "name": "id",
          "type": "uint256"
        },
        {
          "name": "data",
          "type": "string"
        },
        {
          "name": "ownername",
          "type": "string"
        }
      ],
      "payable": false,
      "stateMutability": "view",
      "type": "function",
      "signature": "0x642d1da4"
    },
    {
      "constant": false,
      "inputs": [
        {
          "name": "_caseno",
          "type": "uint256"
        },
        {
          "name": "_id",
          "type": "uint256"
        },
        {
          "name": "_data",
          "type": "string"
        },
        {
          "name": "_ownername",
          "type": "string"
        }
      ],
      "name": "createEvidence",
      "outputs": [],
      "payable": false,
      "stateMutability": "nonpayable",
      "type": "function",
      "signature": "0x2369676f"
    }
  ],
  "bytecode": "0x60806040526000805534801561001457600080fd5b50610581806100246000396000f3fe6080604052600436106100565763ffffffff7c01000000000000000000000000000000000000000000000000000000006000350416632369676f811461005b5780633fc2cf73146101a3578063642d1da4146101ca575b600080fd5b34801561006757600080fd5b506101a16004803603608081101561007e57600080fd5b8135916020810135918101906060810160408201356401000000008111156100a557600080fd5b8201836020820111156100b757600080fd5b803590602001918460018302840111640100000000831117156100d957600080fd5b91908080601f016020809104026020016040519081016040528093929190818152602001838380828437600092019190915250929594936020810193503591505064010000000081111561012c57600080fd5b82018360208201111561013e57600080fd5b8035906020019184600183028401116401000000008311171561016057600080fd5b91908080601f0160208091040260200160405190810160405280939291908181526020018383808284376000920191909152509295506102e0945050505050565b005b3480156101af57600080fd5b506101b8610362565b60408051918252519081900360200190f35b3480156101d657600080fd5b506101f4600480360360208110156101ed57600080fd5b5035610368565b604051808581526020018481526020018060200180602001838103835285818151815260200191508051906020019080838360005b83811015610241578181015183820152602001610229565b50505050905090810190601f16801561026e5780820380516001836020036101000a031916815260200191505b50838103825284518152845160209182019186019080838360005b838110156102a1578181015183820152602001610289565b50505050905090810190601f1680156102ce5780820380516001836020036101000a031916815260200191505b50965050505050505060405180910390f35b600080546001908101808355604080516080810182528881526020808201898152828401898152606084018990529487528582529290952081518155915193820193909355905180519293919261033d92600285019201906104ba565b50606082015180516103599160038401916020909101906104ba565b50505050505050565b60005481565b6001602052806000526040600020600091509050806000015490806001015490806002018054600181600116156101000203166002900480601f0160208091040260200160405190810160405280929190818152602001828054600181600116156101000203166002900480156104205780601f106103f557610100808354040283529160200191610420565b820191906000526020600020905b81548152906001019060200180831161040357829003601f168201915b5050505060038301805460408051602060026001851615610100026000190190941693909304601f81018490048402820184019092528181529495949350908301828280156104b05780601f10610485576101008083540402835291602001916104b0565b820191906000526020600020905b81548152906001019060200180831161049357829003601f168201915b5050505050905084565b828054600181600116156101000203166002900490600052602060002090601f016020900481019282601f106104fb57805160ff1916838001178555610528565b82800160010185558215610528579182015b8281111561052857825182559160200191906001019061050d565b50610534929150610538565b5090565b61055291905b80821115610534576000815560010161053e565b9056fea165627a7a723058209f71be644da88d5149436f8a069f64ac116373135165b5fd7efaa2639ac5f1df0029",
  "source": "pragma solidity ^0.5.0;\r\ncontract Evidences{\r\n    uint public ecount=0;\r\n\r\n    struct Evid{\r\n        uint caseno;\r\n        uint id;\r\n        string data;\r\n        string ownername;\r\n    }\r\n    mapping(uint => Evid)public evidarray;\r\n\r\n    function createEvidence(uint _caseno,uint _id,string memory _data,string memory _ownername)public{\r\n        ecount++;\r\n        evidarray[ecount]=Evid(_caseno, _id, _data, _ownername);\r\n\r\n    }\r\n\r\n\r\n}",
  "sourcePath": "C:/Users/dhadi/eth-todo-list/contracts/Evidences.sol",
  "compiler": {
    "name": "solc",
    "version": "0.5.0+commit.1d4f565a.Emscripten.clang"
  },
  "schemaVersion": "3.0.1",
  "updatedAt": "2022-01-26T07:49:27.602Z",
  "devdoc": {
    "methods": {}
  },
  "userdoc": {
    "methods": {}
  }
}